Archive member included to satisfy reference by file (symbol)

/usr/local/picolibc/riscv32-unknown-elf/lib/./libc.a(memcpy-asm.S.o)
                              /usr/local/picolibc/riscv32-unknown-elf/lib/./crt0.o (memcpy)
/usr/local/picolibc/riscv32-unknown-elf/lib/./libc.a(memset.S.o)
                              /usr/local/picolibc/riscv32-unknown-elf/lib/./crt0.o (memset)
/usr/local/picolibc/riscv32-unknown-elf/lib/./libc.a(fini.c.o)
                              /usr/local/picolibc/riscv32-unknown-elf/lib/./crt0.o (__libc_fini_array)
/usr/local/picolibc/riscv32-unknown-elf/lib/./libc.a(init.c.o)
                              /usr/local/picolibc/riscv32-unknown-elf/lib/./crt0.o (__libc_init_array)
/usr/local/picolibc/riscv32-unknown-elf/lib/./libc.a(rand.c.o)
                              obj/gpc_test.o (rand)
/usr/local/picolibc/riscv32-unknown-elf/lib/./libc.a(random.c.o)
                              /usr/local/picolibc/riscv32-unknown-elf/lib/./libc.a(rand.c.o) (random)
/usr/local/picolibc/riscv32-unknown-elf/lib/./libc.a(nano-malloc-free.c.o)
                              obj/gpc_test.o (free)
/usr/local/picolibc/riscv32-unknown-elf/lib/./libc.a(nano-malloc-malloc.c.o)
                              obj/gpc_test.o (malloc)
/usr/local/picolibc/riscv32-unknown-elf/lib/./libc.a(picosbrk.c.o)
                              /usr/local/picolibc/riscv32-unknown-elf/lib/./libc.a(nano-malloc-malloc.c.o) (sbrk)
/usr/local/picolibc/riscv32-unknown-elf/lib/./libc.a(errno.c.o)
                              /usr/local/picolibc/riscv32-unknown-elf/lib/./libc.a(nano-malloc-free.c.o) (errno)
/usr/local/picolibc/riscv32-unknown-elf/lib/./libc.a(mlock.c.o)
                              /usr/local/picolibc/riscv32-unknown-elf/lib/./libc.a(nano-malloc-free.c.o) (__malloc_lock)

Discarded input sections

 .text          0x0000000000000000        0x0 /usr/local/picolibc/riscv32-unknown-elf/lib/./crt0.o
 .data          0x0000000000000000        0x0 /usr/local/picolibc/riscv32-unknown-elf/lib/./crt0.o
 .bss           0x0000000000000000        0x0 /usr/local/picolibc/riscv32-unknown-elf/lib/./crt0.o
 .text          0x0000000000000000        0x0 obj/gpc.o
 .data          0x0000000000000000        0x0 obj/gpc.o
 .bss           0x0000000000000000        0x0 obj/gpc.o
 .text._Z12axi_wr_int32jj
                0x0000000000000000        0x8 obj/gpc.o
 .text._Z12axi_rd_int64jPv
                0x0000000000000000       0x14 obj/gpc.o
 .text._Z12axi_wr_int64jPv
                0x0000000000000000       0x14 obj/gpc.o
 .text._Z12axi_wr_int64jy
                0x0000000000000000        0xc obj/gpc.o
 .eh_frame      0x0000000000000000       0xb4 obj/gpc.o
 .text          0x0000000000000000        0x0 obj/lnh64.o
 .data          0x0000000000000000        0x0 obj/lnh64.o
 .bss           0x0000000000000000        0x0 obj/lnh64.o
Memory Configuration

Name             Origin             Length             Attributes
ram              0x0000000080000000 0x0000000000010000
*default*        0x0000000000000000 0xffffffffffffffff

Linker script and memory map

                0x0000000080010000                PROVIDE (__stack = (ORIGIN (ram) + LENGTH (ram)))

.init           0x0000000080000000        0xc
 *(.text.init.enter)
 .text.init.enter
                0x0000000080000000        0xc /usr/local/picolibc/riscv32-unknown-elf/lib/./crt0.o
                0x0000000080000000                _start
 *(SORT_NONE(.init))

.text           0x000000008000000c     0x406c
 *(.text.unlikely .text.unlikely.*)
 *(.text.startup .text.startup.*)
 .text.startup.main
                0x000000008000000c      0x15c obj/gpc_test.o
                0x000000008000000c                main
 *(.text .text.*)
 .text._cstart  0x0000000080000168       0x78 /usr/local/picolibc/riscv32-unknown-elf/lib/./crt0.o
 .text._Z13set_gpn_statej
                0x00000000800001e0        0xc obj/gpc.o
                0x00000000800001e0                set_gpn_state(unsigned int)
 .text._Z10gpn_configv
                0x00000000800001ec        0xc obj/gpc.o
                0x00000000800001ec                gpn_config()
 .text._Z9gpn_startv
                0x00000000800001f8       0x10 obj/gpc.o
                0x00000000800001f8                gpn_start()
 .text._Z12axi_rd_int32j
                0x0000000080000208        0x8 obj/gpc.o
                0x0000000080000208                axi_rd_int32(unsigned int)
 .text._Z8lnh_syncv
                0x0000000080000210       0x1c obj/lnh64.o
                0x0000000080000210                lnh_sync()
 .text._Z15lnh_fast_recallj
                0x000000008000022c       0x5c obj/lnh64.o
                0x000000008000022c                lnh_fast_recall(unsigned int)
 .text._Z15lnh_fast_recalljj
                0x0000000080000288       0x64 obj/lnh64.o
                0x0000000080000288                lnh_fast_recall(unsigned int, unsigned int)
 .text._Z12lnh_ins_syncyyy
                0x00000000800002ec       0xa8 obj/lnh64.o
                0x00000000800002ec                lnh_ins_sync(unsigned long long, unsigned long long, unsigned long long)
 .text._Z12lnh_del_syncyy
                0x0000000080000394       0xc0 obj/lnh64.o
                0x0000000080000394                lnh_del_sync(unsigned long long, unsigned long long)
 .text._Z11lnh_get_numy
                0x0000000080000454       0x78 obj/lnh64.o
                0x0000000080000454                lnh_get_num(unsigned long long)
 .text._Z16lnh_del_str_syncy
                0x00000000800004cc       0xa0 obj/lnh64.o
                0x00000000800004cc                lnh_del_str_sync(unsigned long long)
 .text._Z12lnh_sw_resetv
                0x000000008000056c       0x6c obj/lnh64.o
                0x000000008000056c                lnh_sw_reset()
 .text._Z8lnh_initv
                0x00000000800005d8       0x74 obj/lnh64.o
                0x00000000800005d8                lnh_init()
 .text._Z11lnh_sq_syncy
                0x000000008000064c       0xa0 obj/lnh64.o
                0x000000008000064c                lnh_sq_sync(unsigned long long)
 .text._Z11lnh_or_syncyyy
                0x00000000800006ec       0xcc obj/lnh64.o
                0x00000000800006ec                lnh_or_sync(unsigned long long, unsigned long long, unsigned long long)
 .text._Z12lnh_and_syncyyy
                0x00000000800007b8       0xd0 obj/lnh64.o
                0x00000000800007b8                lnh_and_sync(unsigned long long, unsigned long long, unsigned long long)
 .text._Z12lnh_not_syncyyy
                0x0000000080000888       0xd0 obj/lnh64.o
                0x0000000080000888                lnh_not_sync(unsigned long long, unsigned long long, unsigned long long)
 .text._Z13lnh_greq_syncyyy
                0x0000000080000958       0xc0 obj/lnh64.o
                0x0000000080000958                lnh_greq_sync(unsigned long long, unsigned long long, unsigned long long)
 .text._Z10lnh_searchyy
                0x0000000080000a18       0xc8 obj/lnh64.o
                0x0000000080000a18                lnh_search(unsigned long long, unsigned long long)
 .text._Z8lnh_nextyy
                0x0000000080000ae0       0xc4 obj/lnh64.o
                0x0000000080000ae0                lnh_next(unsigned long long, unsigned long long)
 .text._Z7lnh_nsmyy
                0x0000000080000ba4       0xc8 obj/lnh64.o
                0x0000000080000ba4                lnh_nsm(unsigned long long, unsigned long long)
 .text._Z7lnh_ngryy
                0x0000000080000c6c       0xc8 obj/lnh64.o
                0x0000000080000c6c                lnh_ngr(unsigned long long, unsigned long long)
 .text._Z13lnh_get_firsty
                0x0000000080000d34       0xb8 obj/lnh64.o
                0x0000000080000d34                lnh_get_first(unsigned long long)
 .text._Z11lnh_searchqyy
                0x0000000080000dec       0x64 obj/lnh64.o
                0x0000000080000dec                lnh_searchq(unsigned long long, unsigned long long)
 .text._Z9lnh_nextmiiiyy
                0x0000000080000e50       0x80 obj/lnh64.o
                0x0000000080000e50                lnh_nextm(int, int, int, unsigned long long, unsigned long long)
 .text._Z8lnh_ngrmiiiyy
                0x0000000080000ed0       0x84 obj/lnh64.o
                0x0000000080000ed0                lnh_ngrm(int, int, int, unsigned long long, unsigned long long)
 .text._Z13lnh_ins_asyncyyy
                0x0000000080000f54       0x64 obj/lnh64.o
                0x0000000080000f54                lnh_ins_async(unsigned long long, unsigned long long, unsigned long long)
 .text._Z13lnh_del_asyncyy
                0x0000000080000fb8       0x5c obj/lnh64.o
                0x0000000080000fb8                lnh_del_async(unsigned long long, unsigned long long)
 .text._Z12lnh_sq_asyncy
                0x0000000080001014       0x5c obj/lnh64.o
                0x0000000080001014                lnh_sq_async(unsigned long long)
 .text._Z7mq_initi
                0x0000000080001070       0x68 obj/mq.o
                0x0000000080001070                mq_init(int)
 .text._Z7mq_sendj
                0x00000000800010d8       0x90 obj/mq.o
                0x00000000800010d8                mq_send(unsigned int)
 .text._Z7mq_sendjPj
                0x0000000080001168       0x54 obj/mq.o
                0x0000000080001168                mq_send(unsigned int, unsigned int*)
 .text._Z10mq_receivev
                0x00000000800011bc       0x78 obj/mq.o
                0x00000000800011bc                mq_receive()
 .text._Z10mq_receivejPj
                0x0000000080001234       0x54 obj/mq.o
                0x0000000080001234                mq_receive(unsigned int, unsigned int*)
 .text._Z14sync_with_hostv
                0x0000000080001288       0x1c obj/mq.o
                0x0000000080001288                sync_with_host()
 .text._ZL11rand_singlev
                0x00000000800012a4       0x2c obj/gpc_test.o
 .text._Z21frequency_measurementv
                0x00000000800012d0       0x54 obj/gpc_test.o
                0x00000000800012d0                frequency_measurement()
 .text._Z11get_versionv
                0x0000000080001324        0x8 obj/gpc_test.o
                0x0000000080001324                get_version()
 .text._Z18get_lnh_status_lowv
                0x000000008000132c       0x10 obj/gpc_test.o
                0x000000008000132c                get_lnh_status_low()
 .text._Z19get_lnh_status_highv
                0x000000008000133c       0x10 obj/gpc_test.o
                0x000000008000133c                get_lnh_status_high()
 .text._Z5test0v
                0x000000008000134c       0xbc obj/gpc_test.o
                0x000000008000134c                test0()
 .text._Z5test1v
                0x0000000080001408       0x78 obj/gpc_test.o
                0x0000000080001408                test1()
 .text._Z5test2v
                0x0000000080001480       0xd0 obj/gpc_test.o
                0x0000000080001480                test2()
 .text._Z5test3v
                0x0000000080001550       0xc4 obj/gpc_test.o
                0x0000000080001550                test3()
 .text._Z5test4v
                0x0000000080001614       0xd8 obj/gpc_test.o
                0x0000000080001614                test4()
 .text._Z5test5v
                0x00000000800016ec      0x108 obj/gpc_test.o
                0x00000000800016ec                test5()
 .text._Z5test6v
                0x00000000800017f4       0xe0 obj/gpc_test.o
                0x00000000800017f4                test6()
 .text._Z5test7v
                0x00000000800018d4      0x104 obj/gpc_test.o
                0x00000000800018d4                test7()
 .text._Z5test8v
                0x00000000800019d8       0xec obj/gpc_test.o
                0x00000000800019d8                test8()
 .text._Z5test9v
                0x0000000080001ac4      0x11c obj/gpc_test.o
                0x0000000080001ac4                test9()
 .text._Z6test10v
                0x0000000080001be0       0xe0 obj/gpc_test.o
                0x0000000080001be0                test10()
 .text._Z6test11v
                0x0000000080001cc0       0xe0 obj/gpc_test.o
                0x0000000080001cc0                test11()
 .text._Z6test12v
                0x0000000080001da0       0xe4 obj/gpc_test.o
                0x0000000080001da0                test12()
 .text._Z6test13v
                0x0000000080001e84       0xb4 obj/gpc_test.o
                0x0000000080001e84                test13()
 .text._Z6test14v
                0x0000000080001f38       0xcc obj/gpc_test.o
                0x0000000080001f38                test14()
 .text._Z6test15v
                0x0000000080002004       0xac obj/gpc_test.o
                0x0000000080002004                test15()
 .text._Z4exp1v
                0x00000000800020b0      0x220 obj/gpc_test.o
                0x00000000800020b0                exp1()
 .text._Z4exp2v
                0x00000000800022d0      0x178 obj/gpc_test.o
                0x00000000800022d0                exp2()
 .text._Z4exp3v
                0x0000000080002448      0x3ac obj/gpc_test.o
                0x0000000080002448                exp3()
 .text._Z4exp4v
                0x00000000800027f4      0x498 obj/gpc_test.o
                0x00000000800027f4                exp4()
 .text._Z4exp5v
                0x0000000080002c8c      0x3ac obj/gpc_test.o
                0x0000000080002c8c                exp5()
 .text._Z4exp6v
                0x0000000080003038      0x1b0 obj/gpc_test.o
                0x0000000080003038                exp6()
 .text._Z4exp7v
                0x00000000800031e8      0x1bc obj/gpc_test.o
                0x00000000800031e8                exp7()
 .text._Z4exp8v
                0x00000000800033a4      0x2c4 obj/gpc_test.o
                0x00000000800033a4                exp8()
 .text._Z4exp9v
                0x0000000080003668      0x2a8 obj/gpc_test.o
                0x0000000080003668                exp9()
 .text._Z5exp10v
                0x0000000080003910      0x354 obj/gpc_test.o
                0x0000000080003910                exp10()
 .text.memcpy   0x0000000080003c64       0x24 /usr/local/picolibc/riscv32-unknown-elf/lib/./libc.a(memcpy-asm.S.o)
                0x0000000080003c64                memcpy
 .text.memset   0x0000000080003c88       0x1c /usr/local/picolibc/riscv32-unknown-elf/lib/./libc.a(memset.S.o)
                0x0000000080003c88                memset
 .text.__libc_fini_array
                0x0000000080003ca4       0x78 /usr/local/picolibc/riscv32-unknown-elf/lib/./libc.a(fini.c.o)
                0x0000000080003ca4                __libc_fini_array
 .text.__libc_init_array
                0x0000000080003d1c       0xa4 /usr/local/picolibc/riscv32-unknown-elf/lib/./libc.a(init.c.o)
                0x0000000080003d1c                __libc_init_array
 .text.rand     0x0000000080003dc0        0x4 /usr/local/picolibc/riscv32-unknown-elf/lib/./libc.a(rand.c.o)
                0x0000000080003dc0                rand
 .text.random   0x0000000080003dc4       0x50 /usr/local/picolibc/riscv32-unknown-elf/lib/./libc.a(random.c.o)
                0x0000000080003dc4                random
 .text.free     0x0000000080003e14       0xf4 /usr/local/picolibc/riscv32-unknown-elf/lib/./libc.a(nano-malloc-free.c.o)
                0x0000000080003e14                free
 .text.malloc   0x0000000080003f08      0x138 /usr/local/picolibc/riscv32-unknown-elf/lib/./libc.a(nano-malloc-malloc.c.o)
                0x0000000080003f08                malloc
 .text.sbrk     0x0000000080004040       0x30 /usr/local/picolibc/riscv32-unknown-elf/lib/./libc.a(picosbrk.c.o)
                0x0000000080004040                sbrk
 .text.__malloc_lock
                0x0000000080004070        0x4 /usr/local/picolibc/riscv32-unknown-elf/lib/./libc.a(mlock.c.o)
                0x0000000080004070                __malloc_lock
 .text.__malloc_unlock
                0x0000000080004074        0x4 /usr/local/picolibc/riscv32-unknown-elf/lib/./libc.a(mlock.c.o)
                0x0000000080004074                __malloc_unlock
 *(.gnu.linkonce.t.*)

.rela.dyn       0x0000000080004078        0x0
 .rela.text._cstart
                0x0000000080004078        0x0 /usr/local/picolibc/riscv32-unknown-elf/lib/./crt0.o
 .rela.text.init.enter
                0x0000000080004078        0x0 /usr/local/picolibc/riscv32-unknown-elf/lib/./crt0.o
 .rela.text.__libc_fini_array
                0x0000000080004078        0x0 /usr/local/picolibc/riscv32-unknown-elf/lib/./crt0.o
 .rela.text.__libc_init_array
                0x0000000080004078        0x0 /usr/local/picolibc/riscv32-unknown-elf/lib/./crt0.o
 .rela.text.sbrk
                0x0000000080004078        0x0 /usr/local/picolibc/riscv32-unknown-elf/lib/./crt0.o
 .rela.sdata    0x0000000080004078        0x0 /usr/local/picolibc/riscv32-unknown-elf/lib/./crt0.o

.fini
 *(SORT_NONE(.fini))
                [!provide]                        PROVIDE (__etext = .)
                [!provide]                        PROVIDE (_etext = .)
                [!provide]                        PROVIDE (etext = .)
                0x0000000080004078                . = ALIGN (0x4)

.preinit_array  0x0000000080004078        0x0
                0x0000000080004078                PROVIDE (__preinit_array_start = .)
 *(.preinit_array)
                0x0000000080004078                PROVIDE (__preinit_array_end = .)

.init_array     0x0000000080004078        0x0
                0x0000000080004078                PROVIDE (__init_array_start = .)
 *(SORT_BY_INIT_PRIORITY(.init_array.*) SORT_BY_INIT_PRIORITY(.ctors.*))
 *(.init_array EXCLUDE_FILE(*crtend?.o *crtend.o *crtbegin?.o *crtbegin.o) .ctors)
                0x0000000080004078                PROVIDE (__init_array_end = .)

.fini_array     0x0000000080004078        0x0
                0x0000000080004078                PROVIDE (__fini_array_start = .)
 *(SORT_BY_INIT_PRIORITY(.fini_array.*) SORT_BY_INIT_PRIORITY(.dtors.*))
 *(.fini_array EXCLUDE_FILE(*crtend?.o *crtend.o *crtbegin?.o *crtbegin.o) .dtors)
                0x0000000080004078                PROVIDE (__fini_array_end = .)

.ctors
 *crtbegin.o(.ctors)
 *crtbegin?.o(.ctors)
 *(EXCLUDE_FILE(*crtend?.o *crtend.o) .ctors)
 *(SORT_BY_INIT_PRIORITY(.ctors.*))
 *(.ctors)

.dtors
 *crtbegin.o(.dtors)
 *crtbegin?.o(.dtors)
 *(EXCLUDE_FILE(*crtend?.o *crtend.o) .dtors)
 *(SORT_BY_INIT_PRIORITY(.dtors.*))
 *(.dtors)

.data           0x0000000080004078       0x80
 *(.rdata)
 *(.rodata .rodata.*)
 .rodata.main   0x0000000080004078       0x78 obj/gpc_test.o
 *(.gnu.linkonce.r.*)
                0x00000000800040f0                . = ALIGN (0x8)
 *fill*         0x00000000800040f0        0x0 
 *(.srodata.cst16)
 *(.srodata.cst8)
 *(.srodata.cst4)
 *(.srodata.cst2)
 *(.srodata .srodata.*)
 *(.data.rel.ro .data.rel.ro.*)
 *(.got .got.*)
 *(.data .data.*)
 *(.gnu.linkonce.d.*)
                0x00000000800040f0                . = ALIGN (0x8)
                0x00000000800048f0                PROVIDE (__global_pointer$ = (. + 0x800))
 *(.sdata .sdata.* .sdata2.*)
 .sdata._ZL4seed
                0x00000000800040f0        0x4 obj/gpc_test.o
 .sdata         0x00000000800040f4        0x4 /usr/local/picolibc/riscv32-unknown-elf/lib/./libc.a(picosbrk.c.o)
 *(.gnu.linkonce.s.*)
                0x0000000000000000                PROVIDE (__data_source = 0x0)
                0x0000000000000000                PROVIDE (__data_start = 0x0)
                [!provide]                        PROVIDE (__data_end = 0x0)
                0x0000000000000000                PROVIDE (__data_size = 0x0)

.tdata          0x00000000800040f8        0x8
                0x00000000800040f8                PROVIDE (__tls_base = .)
                0x00000000800040f8                _tls_data = .
 *(.tdata)
 .tdata         0x00000000800040f8        0x8 /usr/local/picolibc/riscv32-unknown-elf/lib/./libc.a(random.c.o)
                0x00000000800040f8                _rand_next
 *(.tdata.*)
 *(.gnu.linkonce.td*)
                0x0000000080004100                . = ALIGN (0x4)
                [!provide]                        PROVIDE (__edata = .)
                [!provide]                        PROVIDE (_edata = .)
                [!provide]                        PROVIDE (edata = .)

.tbss           0x0000000080004100        0x4
                0x0000000080004100                PROVIDE (__bss_start = .)
 *(.tbss)
 .tbss          0x0000000080004100        0x4 /usr/local/picolibc/riscv32-unknown-elf/lib/./libc.a(errno.c.o)
                0x0000000080004100                errno
 *(.tbss.*)
 *(.gnu.linkonce.tb.*)
 *(.tcommon)

.bss            0x0000000080004100       0xc8
 *(.sbss*)
 .sbss.LNH_key  0x0000000080004100        0x4 obj/gpc_test.o
                0x0000000080004100                LNH_key
 .sbss.LNH_value
                0x0000000080004104        0x4 obj/gpc_test.o
                0x0000000080004104                LNH_value
 .sbss.TSC_start
                0x0000000080004108        0x8 obj/gpc_test.o
                0x0000000080004108                TSC_start
 .sbss.TSC_stop
                0x0000000080004110        0x8 obj/gpc_test.o
                0x0000000080004110                TSC_stop
 .sbss.crc10    0x0000000080004118        0x4 obj/gpc_test.o
                0x0000000080004118                crc10
 .sbss.crc11    0x000000008000411c        0x4 obj/gpc_test.o
                0x000000008000411c                crc11
 .sbss.crc20    0x0000000080004120        0x4 obj/gpc_test.o
                0x0000000080004120                crc20
 .sbss.crc21    0x0000000080004124        0x4 obj/gpc_test.o
                0x0000000080004124                crc21
 .sbss.err      0x0000000080004128        0x4 obj/gpc_test.o
                0x0000000080004128                err
 .sbss.i        0x000000008000412c        0x4 obj/gpc_test.o
                0x000000008000412c                i
 .sbss.interval
                0x0000000080004130        0x4 obj/gpc_test.o
                0x0000000080004130                interval
 .sbss.j        0x0000000080004134        0x4 obj/gpc_test.o
                0x0000000080004134                j
 .sbss.jl       0x0000000080004138        0x4 obj/gpc_test.o
                0x0000000080004138                jl
 .sbss.k        0x000000008000413c        0x4 obj/gpc_test.o
                0x000000008000413c                k
 .sbss.k10      0x0000000080004140        0x4 obj/gpc_test.o
                0x0000000080004140                k10
 .sbss.k11      0x0000000080004144        0x4 obj/gpc_test.o
                0x0000000080004144                k11
 .sbss.k20      0x0000000080004148        0x4 obj/gpc_test.o
                0x0000000080004148                k20
 .sbss.k21      0x000000008000414c        0x4 obj/gpc_test.o
                0x000000008000414c                k21
 .sbss.low      0x0000000080004150        0x4 obj/gpc_test.o
                0x0000000080004150                low
 .sbss.num      0x0000000080004154        0x4 obj/gpc_test.o
                0x0000000080004154                num
 .sbss.num1     0x0000000080004158        0x4 obj/gpc_test.o
                0x0000000080004158                num1
 .sbss          0x000000008000415c        0x8 /usr/local/picolibc/riscv32-unknown-elf/lib/./libc.a(nano-malloc-malloc.c.o)
                0x000000008000415c                __malloc_sbrk_start
                0x0000000080004160                __malloc_free_list
 *(.gnu.linkonce.sb.*)
 *(.bss .bss.*)
 *fill*         0x0000000080004164        0x4 
 .bss.lnh_core  0x0000000080004168       0x48 obj/lnh64.o
                0x0000000080004168                lnh_core
 .bss.mq        0x00000000800041b0       0x18 obj/mq.o
                0x00000000800041b0                mq
 *(.gnu.linkonce.b.*)
 *(COMMON)
                0x00000000800041c8                . = ALIGN (0x8)
                0x00000000800041c8                __bss_end = .
                0x00000000000000c8                PROVIDE (__bss_size = (__bss_end - __bss_start))
                0x00000000800041c8                PROVIDE (__end = __bss_end)
                [!provide]                        PROVIDE (_end = __bss_end)
                [!provide]                        PROVIDE (end = __bss_end)
                0x00000000800041c8                PROVIDE (__heap_start = __end)
                0x000000008000f800                PROVIDE (__heap_end = (__stack - DEFINED (__stack_size)?__stack_size:0x800))
                [!provide]                        PROVIDE (__heap_size = (__heap_end - __heap_start))

/DISCARD/
 *(.eh_frame .eh_frame.*)
 *(.note .note.*)
LOAD /usr/local/picolibc/riscv32-unknown-elf/lib/./crt0.o
LOAD obj/gpc.o
LOAD obj/lnh64.o
LOAD obj/mq.o
LOAD obj/gpc_test.o
                0x0000000080000000                __executable_start = 0x80000000
                0x0000000080000000                __mem_addr = 0x80000000
                0x0000000000010000                __mem_size = 0x10000
                0x0000000000000800                __stack_size = 0x800
LOAD /opt/taiga-project/tool-chain/RISCV-compiler/riscv32-unknown-elf/lib/gcc/riscv32-unknown-elf/11.1.1/../../../../riscv32-unknown-elf/lib/libstdc++.a
LOAD /usr/local/picolibc/riscv32-unknown-elf/lib/./libm.a
LOAD /opt/taiga-project/tool-chain/RISCV-compiler/riscv32-unknown-elf/lib/gcc/riscv32-unknown-elf/11.1.1/libgcc.a
START GROUP
LOAD /opt/taiga-project/tool-chain/RISCV-compiler/riscv32-unknown-elf/lib/gcc/riscv32-unknown-elf/11.1.1/libgcc.a
LOAD /usr/local/picolibc/riscv32-unknown-elf/lib/./libc.a
END GROUP
LOAD /opt/taiga-project/tool-chain/RISCV-compiler/riscv32-unknown-elf/lib/gcc/riscv32-unknown-elf/11.1.1/libgcc.a
OUTPUT(gpc_test elf32-littleriscv)

.comment        0x0000000000000000       0x1b
 .comment       0x0000000000000000       0x1b /usr/local/picolibc/riscv32-unknown-elf/lib/./crt0.o
                                         0x1c (size before relaxing)
 .comment       0x000000000000001b       0x1c obj/gpc.o
 .comment       0x000000000000001b       0x1c obj/lnh64.o
 .comment       0x000000000000001b       0x1c obj/mq.o
 .comment       0x000000000000001b       0x1c obj/gpc_test.o
 .comment       0x000000000000001b       0x1c /usr/local/picolibc/riscv32-unknown-elf/lib/./libc.a(fini.c.o)
 .comment       0x000000000000001b       0x1c /usr/local/picolibc/riscv32-unknown-elf/lib/./libc.a(init.c.o)
 .comment       0x000000000000001b       0x1c /usr/local/picolibc/riscv32-unknown-elf/lib/./libc.a(rand.c.o)
 .comment       0x000000000000001b       0x1c /usr/local/picolibc/riscv32-unknown-elf/lib/./libc.a(random.c.o)
 .comment       0x000000000000001b       0x1c /usr/local/picolibc/riscv32-unknown-elf/lib/./libc.a(nano-malloc-free.c.o)
 .comment       0x000000000000001b       0x1c /usr/local/picolibc/riscv32-unknown-elf/lib/./libc.a(nano-malloc-malloc.c.o)
 .comment       0x000000000000001b       0x1c /usr/local/picolibc/riscv32-unknown-elf/lib/./libc.a(picosbrk.c.o)
 .comment       0x000000000000001b       0x1c /usr/local/picolibc/riscv32-unknown-elf/lib/./libc.a(errno.c.o)
 .comment       0x000000000000001b       0x1c /usr/local/picolibc/riscv32-unknown-elf/lib/./libc.a(mlock.c.o)

.riscv.attributes
                0x0000000000000000       0x21
 .riscv.attributes
                0x0000000000000000       0x21 /usr/local/picolibc/riscv32-unknown-elf/lib/./crt0.o
 .riscv.attributes
                0x0000000000000021       0x21 obj/gpc.o
 .riscv.attributes
                0x0000000000000042       0x21 obj/lnh64.o
 .riscv.attributes
                0x0000000000000063       0x21 obj/mq.o
 .riscv.attributes
                0x0000000000000084       0x21 obj/gpc_test.o
 .riscv.attributes
                0x00000000000000a5       0x1f /usr/local/picolibc/riscv32-unknown-elf/lib/./libc.a(memcpy-asm.S.o)
 .riscv.attributes
                0x00000000000000c4       0x1f /usr/local/picolibc/riscv32-unknown-elf/lib/./libc.a(memset.S.o)
 .riscv.attributes
                0x00000000000000e3       0x21 /usr/local/picolibc/riscv32-unknown-elf/lib/./libc.a(fini.c.o)
 .riscv.attributes
                0x0000000000000104       0x21 /usr/local/picolibc/riscv32-unknown-elf/lib/./libc.a(init.c.o)
 .riscv.attributes
                0x0000000000000125       0x21 /usr/local/picolibc/riscv32-unknown-elf/lib/./libc.a(rand.c.o)
 .riscv.attributes
                0x0000000000000146       0x21 /usr/local/picolibc/riscv32-unknown-elf/lib/./libc.a(random.c.o)
 .riscv.attributes
                0x0000000000000167       0x21 /usr/local/picolibc/riscv32-unknown-elf/lib/./libc.a(nano-malloc-free.c.o)
 .riscv.attributes
                0x0000000000000188       0x21 /usr/local/picolibc/riscv32-unknown-elf/lib/./libc.a(nano-malloc-malloc.c.o)
 .riscv.attributes
                0x00000000000001a9       0x21 /usr/local/picolibc/riscv32-unknown-elf/lib/./libc.a(picosbrk.c.o)
 .riscv.attributes
                0x00000000000001ca       0x21 /usr/local/picolibc/riscv32-unknown-elf/lib/./libc.a(errno.c.o)
 .riscv.attributes
                0x00000000000001eb       0x21 /usr/local/picolibc/riscv32-unknown-elf/lib/./libc.a(mlock.c.o)

.debug_aranges  0x0000000000000000      0x180
 .debug_aranges
                0x0000000000000000       0x28 /usr/local/picolibc/riscv32-unknown-elf/lib/./crt0.o
 .debug_aranges
                0x0000000000000028       0x20 /usr/local/picolibc/riscv32-unknown-elf/lib/./libc.a(memcpy-asm.S.o)
 .debug_aranges
                0x0000000000000048       0x20 /usr/local/picolibc/riscv32-unknown-elf/lib/./libc.a(memset.S.o)
 .debug_aranges
                0x0000000000000068       0x20 /usr/local/picolibc/riscv32-unknown-elf/lib/./libc.a(fini.c.o)
 .debug_aranges
                0x0000000000000088       0x20 /usr/local/picolibc/riscv32-unknown-elf/lib/./libc.a(init.c.o)
 .debug_aranges
                0x00000000000000a8       0x20 /usr/local/picolibc/riscv32-unknown-elf/lib/./libc.a(rand.c.o)
 .debug_aranges
                0x00000000000000c8       0x20 /usr/local/picolibc/riscv32-unknown-elf/lib/./libc.a(random.c.o)
 .debug_aranges
                0x00000000000000e8       0x20 /usr/local/picolibc/riscv32-unknown-elf/lib/./libc.a(nano-malloc-free.c.o)
 .debug_aranges
                0x0000000000000108       0x20 /usr/local/picolibc/riscv32-unknown-elf/lib/./libc.a(nano-malloc-malloc.c.o)
 .debug_aranges
                0x0000000000000128       0x20 /usr/local/picolibc/riscv32-unknown-elf/lib/./libc.a(picosbrk.c.o)
 .debug_aranges
                0x0000000000000148       0x18 /usr/local/picolibc/riscv32-unknown-elf/lib/./libc.a(errno.c.o)
 .debug_aranges
                0x0000000000000160       0x20 /usr/local/picolibc/riscv32-unknown-elf/lib/./libc.a(mlock.c.o)

.debug_info     0x0000000000000000      0xb62
 .debug_info    0x0000000000000000      0x25e /usr/local/picolibc/riscv32-unknown-elf/lib/./crt0.o
 .debug_info    0x000000000000025e       0x24 /usr/local/picolibc/riscv32-unknown-elf/lib/./libc.a(memcpy-asm.S.o)
 .debug_info    0x0000000000000282       0x24 /usr/local/picolibc/riscv32-unknown-elf/lib/./libc.a(memset.S.o)
 .debug_info    0x00000000000002a6       0xe8 /usr/local/picolibc/riscv32-unknown-elf/lib/./libc.a(fini.c.o)
 .debug_info    0x000000000000038e      0x100 /usr/local/picolibc/riscv32-unknown-elf/lib/./libc.a(init.c.o)
 .debug_info    0x000000000000048e       0xa1 /usr/local/picolibc/riscv32-unknown-elf/lib/./libc.a(rand.c.o)
 .debug_info    0x000000000000052f       0x96 /usr/local/picolibc/riscv32-unknown-elf/lib/./libc.a(random.c.o)
 .debug_info    0x00000000000005c5      0x18c /usr/local/picolibc/riscv32-unknown-elf/lib/./libc.a(nano-malloc-free.c.o)
 .debug_info    0x0000000000000751      0x28b /usr/local/picolibc/riscv32-unknown-elf/lib/./libc.a(nano-malloc-malloc.c.o)
 .debug_info    0x00000000000009dc       0xf0 /usr/local/picolibc/riscv32-unknown-elf/lib/./libc.a(picosbrk.c.o)
 .debug_info    0x0000000000000acc       0x41 /usr/local/picolibc/riscv32-unknown-elf/lib/./libc.a(errno.c.o)
 .debug_info    0x0000000000000b0d       0x55 /usr/local/picolibc/riscv32-unknown-elf/lib/./libc.a(mlock.c.o)

.debug_abbrev   0x0000000000000000      0x85f
 .debug_abbrev  0x0000000000000000      0x199 /usr/local/picolibc/riscv32-unknown-elf/lib/./crt0.o
 .debug_abbrev  0x0000000000000199       0x14 /usr/local/picolibc/riscv32-unknown-elf/lib/./libc.a(memcpy-asm.S.o)
 .debug_abbrev  0x00000000000001ad       0x14 /usr/local/picolibc/riscv32-unknown-elf/lib/./libc.a(memset.S.o)
 .debug_abbrev  0x00000000000001c1       0xc6 /usr/local/picolibc/riscv32-unknown-elf/lib/./libc.a(fini.c.o)
 .debug_abbrev  0x0000000000000287       0xc5 /usr/local/picolibc/riscv32-unknown-elf/lib/./libc.a(init.c.o)
 .debug_abbrev  0x000000000000034c       0x66 /usr/local/picolibc/riscv32-unknown-elf/lib/./libc.a(rand.c.o)
 .debug_abbrev  0x00000000000003b2       0x56 /usr/local/picolibc/riscv32-unknown-elf/lib/./libc.a(random.c.o)
 .debug_abbrev  0x0000000000000408      0x158 /usr/local/picolibc/riscv32-unknown-elf/lib/./libc.a(nano-malloc-free.c.o)
 .debug_abbrev  0x0000000000000560      0x1a2 /usr/local/picolibc/riscv32-unknown-elf/lib/./libc.a(nano-malloc-malloc.c.o)
 .debug_abbrev  0x0000000000000702       0xba /usr/local/picolibc/riscv32-unknown-elf/lib/./libc.a(picosbrk.c.o)
 .debug_abbrev  0x00000000000007bc       0x46 /usr/local/picolibc/riscv32-unknown-elf/lib/./libc.a(errno.c.o)
 .debug_abbrev  0x0000000000000802       0x5d /usr/local/picolibc/riscv32-unknown-elf/lib/./libc.a(mlock.c.o)

.debug_line     0x0000000000000000      0xd60
 .debug_line    0x0000000000000000      0x12c /usr/local/picolibc/riscv32-unknown-elf/lib/./crt0.o
 .debug_line    0x000000000000012c       0x7a /usr/local/picolibc/riscv32-unknown-elf/lib/./libc.a(memcpy-asm.S.o)
 .debug_line    0x00000000000001a6       0x6e /usr/local/picolibc/riscv32-unknown-elf/lib/./libc.a(memset.S.o)
 .debug_line    0x0000000000000214      0x110 /usr/local/picolibc/riscv32-unknown-elf/lib/./libc.a(fini.c.o)
 .debug_line    0x0000000000000324      0x161 /usr/local/picolibc/riscv32-unknown-elf/lib/./libc.a(init.c.o)
 .debug_line    0x0000000000000485       0x67 /usr/local/picolibc/riscv32-unknown-elf/lib/./libc.a(rand.c.o)
 .debug_line    0x00000000000004ec       0x8f /usr/local/picolibc/riscv32-unknown-elf/lib/./libc.a(random.c.o)
 .debug_line    0x000000000000057b      0x309 /usr/local/picolibc/riscv32-unknown-elf/lib/./libc.a(nano-malloc-free.c.o)
 .debug_line    0x0000000000000884      0x37f /usr/local/picolibc/riscv32-unknown-elf/lib/./libc.a(nano-malloc-malloc.c.o)
 .debug_line    0x0000000000000c03       0xc8 /usr/local/picolibc/riscv32-unknown-elf/lib/./libc.a(picosbrk.c.o)
 .debug_line    0x0000000000000ccb       0x43 /usr/local/picolibc/riscv32-unknown-elf/lib/./libc.a(errno.c.o)
 .debug_line    0x0000000000000d0e       0x52 /usr/local/picolibc/riscv32-unknown-elf/lib/./libc.a(mlock.c.o)

.debug_frame    0x0000000000000000      0x1c8
 .debug_frame   0x0000000000000000       0x44 /usr/local/picolibc/riscv32-unknown-elf/lib/./crt0.o
 .debug_frame   0x0000000000000044       0x40 /usr/local/picolibc/riscv32-unknown-elf/lib/./libc.a(fini.c.o)
 .debug_frame   0x0000000000000084       0x3c /usr/local/picolibc/riscv32-unknown-elf/lib/./libc.a(init.c.o)
 .debug_frame   0x00000000000000c0       0x20 /usr/local/picolibc/riscv32-unknown-elf/lib/./libc.a(rand.c.o)
 .debug_frame   0x00000000000000e0       0x20 /usr/local/picolibc/riscv32-unknown-elf/lib/./libc.a(random.c.o)
 .debug_frame   0x0000000000000100       0x38 /usr/local/picolibc/riscv32-unknown-elf/lib/./libc.a(nano-malloc-free.c.o)
 .debug_frame   0x0000000000000138       0x40 /usr/local/picolibc/riscv32-unknown-elf/lib/./libc.a(nano-malloc-malloc.c.o)
 .debug_frame   0x0000000000000178       0x20 /usr/local/picolibc/riscv32-unknown-elf/lib/./libc.a(picosbrk.c.o)
 .debug_frame   0x0000000000000198       0x30 /usr/local/picolibc/riscv32-unknown-elf/lib/./libc.a(mlock.c.o)

.debug_str      0x0000000000000000      0x3fc
 .debug_str     0x0000000000000000      0x1a4 /usr/local/picolibc/riscv32-unknown-elf/lib/./crt0.o
                                        0x1f5 (size before relaxing)
 .debug_str     0x00000000000001a4       0x2e /usr/local/picolibc/riscv32-unknown-elf/lib/./libc.a(memcpy-asm.S.o)
 .debug_str     0x00000000000001d2        0x9 /usr/local/picolibc/riscv32-unknown-elf/lib/./libc.a(memset.S.o)
                                         0x2a (size before relaxing)
 .debug_str     0x00000000000001db       0xbd /usr/local/picolibc/riscv32-unknown-elf/lib/./libc.a(fini.c.o)
                                        0x15f (size before relaxing)
 .debug_str     0x0000000000000298       0x54 /usr/local/picolibc/riscv32-unknown-elf/lib/./libc.a(init.c.o)
                                        0x189 (size before relaxing)
 .debug_str     0x00000000000002ec        0xc /usr/local/picolibc/riscv32-unknown-elf/lib/./libc.a(rand.c.o)
                                        0x122 (size before relaxing)
 .debug_str     0x00000000000002f8        0xb /usr/local/picolibc/riscv32-unknown-elf/lib/./libc.a(random.c.o)
                                        0x128 (size before relaxing)
 .debug_str     0x0000000000000303       0x68 /usr/local/picolibc/riscv32-unknown-elf/lib/./libc.a(nano-malloc-free.c.o)
                                        0x193 (size before relaxing)
 .debug_str     0x000000000000036b       0x6a /usr/local/picolibc/riscv32-unknown-elf/lib/./libc.a(nano-malloc-malloc.c.o)
                                        0x1e4 (size before relaxing)
 .debug_str     0x00000000000003d5       0x27 /usr/local/picolibc/riscv32-unknown-elf/lib/./libc.a(picosbrk.c.o)
                                        0x142 (size before relaxing)
 .debug_str     0x00000000000003fc       0x98 /usr/local/picolibc/riscv32-unknown-elf/lib/./libc.a(errno.c.o)
 .debug_str     0x00000000000003fc       0xb8 /usr/local/picolibc/riscv32-unknown-elf/lib/./libc.a(mlock.c.o)

.debug_line_str
                0x0000000000000000      0x485
 .debug_line_str
                0x0000000000000000      0x1c2 /usr/local/picolibc/riscv32-unknown-elf/lib/./crt0.o
                                        0x20d (size before relaxing)
 .debug_line_str
                0x00000000000001c2       0x3b /usr/local/picolibc/riscv32-unknown-elf/lib/./libc.a(memcpy-asm.S.o)
                                         0x76 (size before relaxing)
 .debug_line_str
                0x00000000000001fd        0x9 /usr/local/picolibc/riscv32-unknown-elf/lib/./libc.a(memset.S.o)
                                         0x6e (size before relaxing)
 .debug_line_str
                0x0000000000000206       0x51 /usr/local/picolibc/riscv32-unknown-elf/lib/./libc.a(fini.c.o)
                                        0x11f (size before relaxing)
 .debug_line_str
                0x0000000000000257       0x2c /usr/local/picolibc/riscv32-unknown-elf/lib/./libc.a(init.c.o)
                                        0x11f (size before relaxing)
 .debug_line_str
                0x0000000000000283       0x5e /usr/local/picolibc/riscv32-unknown-elf/lib/./libc.a(rand.c.o)
                                         0xe1 (size before relaxing)
 .debug_line_str
                0x00000000000002e1       0x30 /usr/local/picolibc/riscv32-unknown-elf/lib/./libc.a(random.c.o)
                                         0xb6 (size before relaxing)
 .debug_line_str
                0x0000000000000311       0x5a /usr/local/picolibc/riscv32-unknown-elf/lib/./libc.a(nano-malloc-free.c.o)
                                        0x135 (size before relaxing)
 .debug_line_str
                0x000000000000036b       0x3c /usr/local/picolibc/riscv32-unknown-elf/lib/./libc.a(nano-malloc-malloc.c.o)
                                        0x1f9 (size before relaxing)
 .debug_line_str
                0x00000000000003a7       0x5b /usr/local/picolibc/riscv32-unknown-elf/lib/./libc.a(picosbrk.c.o)
                                        0x134 (size before relaxing)
 .debug_line_str
                0x0000000000000402       0x54 /usr/local/picolibc/riscv32-unknown-elf/lib/./libc.a(errno.c.o)
                                         0xe4 (size before relaxing)
 .debug_line_str
                0x0000000000000456       0x2f /usr/local/picolibc/riscv32-unknown-elf/lib/./libc.a(mlock.c.o)
                                         0xb3 (size before relaxing)

.debug_loclists
                0x0000000000000000      0x3c6
 .debug_loclists
                0x0000000000000000       0x48 /usr/local/picolibc/riscv32-unknown-elf/lib/./crt0.o
 .debug_loclists
                0x0000000000000048       0x3b /usr/local/picolibc/riscv32-unknown-elf/lib/./libc.a(fini.c.o)
 .debug_loclists
                0x0000000000000083       0x98 /usr/local/picolibc/riscv32-unknown-elf/lib/./libc.a(init.c.o)
 .debug_loclists
                0x000000000000011b       0xc8 /usr/local/picolibc/riscv32-unknown-elf/lib/./libc.a(nano-malloc-free.c.o)
 .debug_loclists
                0x00000000000001e3      0x1a6 /usr/local/picolibc/riscv32-unknown-elf/lib/./libc.a(nano-malloc-malloc.c.o)
 .debug_loclists
                0x0000000000000389       0x3d /usr/local/picolibc/riscv32-unknown-elf/lib/./libc.a(picosbrk.c.o)

.debug_rnglists
                0x0000000000000000      0x11b
 .debug_rnglists
                0x0000000000000000       0x32 /usr/local/picolibc/riscv32-unknown-elf/lib/./crt0.o
 .debug_rnglists
                0x0000000000000032       0x16 /usr/local/picolibc/riscv32-unknown-elf/lib/./libc.a(fini.c.o)
 .debug_rnglists
                0x0000000000000048       0x16 /usr/local/picolibc/riscv32-unknown-elf/lib/./libc.a(init.c.o)
 .debug_rnglists
                0x000000000000005e       0x16 /usr/local/picolibc/riscv32-unknown-elf/lib/./libc.a(rand.c.o)
 .debug_rnglists
                0x0000000000000074       0x16 /usr/local/picolibc/riscv32-unknown-elf/lib/./libc.a(random.c.o)
 .debug_rnglists
                0x000000000000008a       0x29 /usr/local/picolibc/riscv32-unknown-elf/lib/./libc.a(nano-malloc-free.c.o)
 .debug_rnglists
                0x00000000000000b3       0x3c /usr/local/picolibc/riscv32-unknown-elf/lib/./libc.a(nano-malloc-malloc.c.o)
 .debug_rnglists
                0x00000000000000ef       0x16 /usr/local/picolibc/riscv32-unknown-elf/lib/./libc.a(picosbrk.c.o)
 .debug_rnglists
                0x0000000000000105       0x16 /usr/local/picolibc/riscv32-unknown-elf/lib/./libc.a(mlock.c.o)
